:100000000C9463000C948B000C948B000C94790975
:100010000C9479090C9479090C948B000C948B0046
:100020000C948B000C948B000C948B000C948B0024
:100030000C948B000C948B000C948B000C948B0014
:100040000C94D7080C948B000C9447090C9421094C
:100050000C948B000C948B000C948B000C948B00F4
:100060000C94F1090C948B00000000002400270080
:100070002A0000000008000201000003040700003D
:1000800000000000000000000000230026002900FE
:1000900000000000250028002B00040404040404D0
:1000A0000404020202020202030303030303010227
:1000B00004081020408001020408102001020408F6
:1000C00010209E0B7A0F11241FBECFEFD8E0DEBFA9
:1000D000CDBF12E0A0E0B1E0E6EFF8E202C005908B
:1000E0000D92AA39B107D9F724E0AAE9B2E001C01C
:1000F0001D92A439B207E1F710E0C2E6D0E004C0D7
:100100002197FE010E947612C136D107C9F70E94DD
:100110000A0D0C946E140C940000833081F028F4C6
:10012000813099F08230A9F008958730A9F08830A5
:10013000C9F08430B1F4809180008F7D03C080913C
:1001400080008F7780938000089584B58F7784BD79
:10015000089584B58F7DFBCF8091B0008F77809319
:10016000B00008958091B0008F7DF9CFCF93DF93D9
:10017000282F30E0F901EE58FF4F8491F901E25544
:10018000FF4FD491F901E656FF4FC491CC23A1F063
:1001900081110E948D00EC2FF0E0EE0FFF1FEA5757
:1001A000FF4FA591B491EC91ED2381E090E009F42B
:1001B00080E0DF91CF91089580E090E0FACF1F9327
:1001C000CF93DF93282F30E0F901EE58FF4F849151
:1001D000F901E255FF4FD491F901E656FF4FC49162
:1001E000CC23A9F0162F81110E948D00EC2FF0E096
:1001F000EE0FFF1FE057FF4FA591B4918FB7F89412
:10020000EC91111108C0D095DE23DC938FBFDF91F4
:10021000CF911F910895DE2BF8CFCF93DF9390E01D
:10022000FC01E255FF4F249186569F4FFC018491BB
:100230008823D1F090E0880F991FFC01E859FF4F07
:10024000A591B491FC01E057FF4FC591D491611184
:100250000EC09FB7F8948C91E22FE0958E238C937B
:100260002881E223E8839FBFDF91CF9108958FB764
:10027000F894EC91E22BEC938FBFF6CF3FB7F89454
:100280008091550390915603A0915703B091580364
:1002900026B5A89B05C02F3F19F00196A11DB11DE1
:1002A0003FBFBA2FA92F982F8827BC01CD01620F1D
:1002B000711D811D911D42E0660F771F881F991FD8
:1002C0004A95D1F708958F929F92AF92BF92CF92A5
:1002D000DF92EF92FF926B017C010E943E014B0185
:1002E0005C01C114D104E104F104B9F00E943E01A3
:1002F000681979098A099B09683E7340810591054F
:1003000080F321E0C21AD108E108F10888EE880ED6
:1003100083E0981EA11CB11CE4CFFF90EF90DF900A
:10032000CF90BF90AF909F908F90089508950895BB
:10033000AF92BF92CF92DF92EF92FF920F931F93F3
:10034000CF93DF936C017B018B01040F151FEB0131
:100350005E01AE18BF08C017D10759F06991D601E8
:10036000ED91FC910190F081E02DC6010995892B5A
:1003700079F7C501DF91CF911F910F91FF90EF9019
:10038000DF90CF90BF90AF900895FC01538D448DC6
:10039000252F30E0842F90E0821B930B541710F030
:1003A000CF96089501970895FC01918D828D98173D
:1003B00061F0A28DAE0FBF2FB11D5D968C91928D15
:1003C0009F5F9F73928F90E008958FEF9FEF089546
:1003D000FC01918D828D981731F0828DE80FF11D0F
:1003E000858D90E008958FEF9FEF0895FC01918D2A
:1003F000228D892F90E0805C9F4F821B91098F7323
:100400009927089581EB93E00E94F60121E0892B62
:1004100009F420E0822F089580E090E0892B29F0F4
:100420000E94020281110C9400000895FC01A48D29
:10043000A80FB92FB11DA35ABF4F2C91848D90E006
:1004400001968F739927848FA689B7892C93A089E9
:10045000B1898C91837080648C93938D848D981373
:1004600006C00288F389E02D80818F7D8083089506
:10047000EF92FF920F931F93CF93DF93EC0181E0F4
:10048000888F9B8D8C8D98131AC0E889F98980819B
:1004900085FF15C09FB7F894EE89FF896083E889CE
:1004A000F98980818370806480839FBF81E090E0C0
:1004B000DF91CF911F910F91FF90EF900895F62E4D
:1004C0000B8D10E00F5F1F4F0F731127E02E8C8DE7
:1004D0008E110CC00FB607FCFACFE889F98980812C
:1004E00085FFF5CFCE010E941602F1CFEB8DEC0F08
:1004F000FD2FF11DE35AFF4FF0829FB7F8940B8F49
:10050000EA89FB8980818062CFCFCF93DF93EC01B2
:10051000888D8823B9F0AA89BB89E889F9898C91EB
:1005200085FD03C0808186FD0DC00FB607FCF7CFA7
:100530008C9185FFF2CF808185FFEDCFCE010E94A7
:100540001602E9CFDF91CF91089520916F04309189
:1005500070042817390771F490914E0480914F046C
:10056000981741F0E0914E04F0E0E250FD4F808199
:1005700090E008958FEF9FEF08950895EF92FF9216
:100580000F931F93CF93DF93DC015C96ED90FC906B
:100590005D97E114F10479F481E090E013969C9367
:1005A0008E93129790E080E0DF91CF911F910F9191
:1005B000FF90EF9008955196ED91FC9152975096CF
:1005C0008C915097982F90950FB75E962C915E97CF
:1005D000122F127021FD6095F8942081112319F1DA
:1005E000282B2083E7012197F1F728E0462F50E0E0
:1005F000308160FF1AC0382B3083E7012197F1F773
:10060000BA0175956795215089F7112381F0808192
:10061000892380830FBF5C968D919C910197F1F7A0
:1006200081E090E0C1CF2923DCCF3923E5CF908151
:10063000892BEFCF20916F04309170042817390770
:1006400061F480914F0420914E0490E0805C9F4FB4
:10065000821B91098F739927089590E080E0089597
:1006600020916F043091700428173907B9F49091E4
:100670004E0480914F04981789F0E0914E04F0E009
:10068000E250FD4F808120914E0430E02F5F3F4FBC
:100690002F73332720934E0490E008958FEF9FEF40
:1006A0000895DC01ED91FC910190F081E02D099419
:1006B0002091BB02260F3327331F21323105ECF482
:1006C00020918703FC0190E080E0243069F082E013
:1006D0000895A091BB022191AC0145565D4FA40F36
:1006E000B52FB11D2C930196861798F38091BB020C
:1006F000680F6093BB0280E0089581E00895109236
:10070000870381E0809386031092610361E082E1B8
:100710000E94DF0061E083E10E94DF00E9EBF0E08E
:1007200080818E7F808380818D7F808388E4809329
:10073000B80085E48093BC000895CF93DF9391E0E7
:1007400090939A028823B9F0C091B800D091BA0072
:100750008091BC008A7B8093BC0060E082E10E94B3
:10076000DF0060E083E10E94DF000E947F03D093FE
:10077000BA00C093B800DF91CF9108958F929F92F5
:10078000AF92BF92CF92DF92EF92FF920F931F939F
:10079000CF93DF93D091B003D13208F0D7C0182F98
:1007A000C091AF030E943E016B017C0180918703E1
:1007B00081116BC082E080938703109386038FEFD3
:1007C0008093850310928403D0938303AFE8B3E052
:1007D000E3E6F3E080E0D81391C0109262038091C9
:1007E0006203CC0FC82BC0936203809161038130F8
:1007F00009F088C0109261030E943E016B017C01E8
:10080000809162038093BB008091890390918A0359
:10081000A0918B03B0918C03892B8A2B8B2BA1F099
:100820000E943E010091890310918A0320918B035D
:1008300030918C036C197D098E099F0906171707E3
:100840002807390708F442C08091BC0083FDD8CF47
:1008500085EC8093BC000E943E016B017C0180917D
:100860008703823009F450C0809185038F3F09F4DB
:100870006FC080918503803209F46CC0809185033C
:10088000803309F469C084E026C080918903909187
:100890008A03A0918B03B0918C03892B8A2B8B2B1D
:1008A00009F484CF0E943E018090890390908A03CE
:1008B000A0908B03B0908C036C197D098E099F0961
:1008C00086169706A806B90608F070CF80918803AF
:1008D0000E949D0385E010928E031092B003109247
:1008E0008D03DF91CF911F910F91FF90EF90DF90DB
:1008F000CF90BF90AF909F908F9008959D919193CE
:100900008F5F69CF85EEA5CF8091890390918A038F
:10091000A0918B03B0918C03892B8A2B8B2B09F42C
:100920009ECF0E943E010091890310918A0320917D
:100930008B0330918C036C197D098E099F09061772
:1009400017072807390708F08ACFC0CF81E0C3CF47
:1009500080E0C1CF82E0BFCF83E0BDCF1F93CF93B4
:10096000DF93162FCCE5D4E0A981BA81988121E0EC
:1009700020938D039093AF0310928E031092B003D7
:10098000ED91FC9111970190F081E02D682FCD0140
:10099000099589819A81DC01ED91FC910190F081AA
:1009A000E02D612F099581E0DF91CF911F910C948B
:1009B000BE03E091430380914203E81730F4F0E076
:1009C000E252FD4F808190E008958FEF9FEF0895F0
:1009D00090914303809142032FEF3FEF981748F423
:1009E000E92FF0E0E252FD4F208130E09F5F9093CD
:1009F0004303C90108958091420390914303891BE9
:100A0000990B0895CF92DF92EF92FF920F931F936D
:100A1000CF93DF937C01CB018A0120918D032223A8
:100A200089F0EB016B01C40ED51ECC15DD0569F014
:100A30006991D701ED91FC910190F081E02DC70102
:100A40000995F3CF642F0E945803C801DF91CF911D
:100A50001F910F91FF90EF90DF90CF900895CF936B
:100A6000DF931F92CDB7DEB7698320918D032223D8
:100A7000F9F02091B003203258F021E030E0FC0181
:100A80003383228390E080E00F90DF91CF9108952F
:100A900080918E03E82FF0E0E157FC4F998190831D
:100AA0008F5F80938E038093B00381E090E0ECCF62
:100AB00061E0CE0101960E945803F7CF90E080E0FC
:100AC0000895CF92DF92EF92FF92FA016B01770FB8
:100AD000EE08FF089C01990F440B550B2C193D099A
:100AE0004E095F09AFEFB0E00E94E9109F01FF0FD0
:100AF000440B550B2C193D094E095F090E94CA1081
:100B0000C901FF90EF90DF90CF9008958F929F9250
:100B1000AF92BF92CF92DF92EF92FF920F931F930B
:100B2000CF938C01DC0111968D919C9112972C91A1
:100B300031E030938D032093AF0310928E03109217
:100B4000B003DC01ED91FC910190F081E02D09955D
:100B500081E00E94BE03F801C0810E943E016B014A
:100B60007C0180918703811164C081E080938703B9
:100B7000809386039FEF90938503109284031092D5
:100B800083038093620380916203CC0FC82BC093D0
:100B9000620380916103813009F08CC0109261037F
:100BA0000E943E016B017C01809162038093BB0037
:100BB0008091890390918A03A0918B03B0918C035B
:100BC000892B8A2B8B2BA1F00E943E0180908903F8
:100BD00090908A03A0908B03B0908C036C197D09D0
:100BE0008E099F0986169706A806B90608F442C022
:100BF0008091BC0083FDD8CF85EC8093BC000E941F
:100C00003E016B017C0180918703813009F454C05F
:100C100080918403811172C080918403E3E6F3E044
:100C2000AEEDB2E090E0981751F121912D939F5FC6
:100C3000FACF8091890390918A03A0918B03B091A0
:100C40008C03892B8A2B8B2B09F48BCF0E943E01BE
:100C50008090890390908A03A0908B03B0908C03BE
:100C60006C197D098E099F0986169706A806B90694
:100C700008F077CF809188030E949D0380E0109256
:100C8000430380934203D80111968D919C91DC011E
:100C9000ED91FC910284F385E02D0995CF911F9190
:100CA0000F91FF90EF90DF90CF90BF90AF909F900B
:100CB0008F90089585EEA1CF8091890390918A034A
:100CC000A0918B03B0918C03892B8A2B8B2B09F479
:100CD0009ACF0E943E018090890390908A03A09051
:100CE0008B03B0908C036C197D098E099F098616C1
:100CF0009706A806B90608F086CFBCCF81E08ECF54
:100D00008F929F92AF92BF92CF92DF92EF92FF921B
:100D1000CF936B017C0120E030E040E85FE30E946C
:100D2000A60F87FD7CC020E030EC4AE555E4C70102
:100D3000B6010E946A1218163CF4C12C30ECD32E76
:100D40003AE5E32E35E4F32E60915F047091600480
:100D500080916104909162040E94AB0F4B015C0191
:100D600020E030E040E855E4C701B6010E940C10D5
:100D70009B01AC01C501B4010E94C91120E030E023
:100D800040E05FE30E945D1120E030E040E85FE377
:100D90000E945C116B017C0120E030E040E450E4F3
:100DA0000E94A60F87FD42C020E030E04FE753E4E9
:100DB000C701B6010E946A12181634F4C12CD12C56
:100DC0009FE7E92E93E4F92E60E08CE594E00E9421
:100DD0008605C82F682F6F76606180E00E94AE04A0
:100DE000C701B6010E943B128EEF0E94AE046C2F29
:100DF00080E00E94AE0465E070E080E090E00E9438
:100E000063016C2F606A80E0CF91FF90EF90DF90DC
:100E1000CF90BF90AF909F908F900C94AE04C12C58
:100E2000D12C20E8E22E2FE3F22E8ECFC12CD12C34
:100E300080E4E82EFE2CC8CF8F929F92AF92BF9293
:100E4000CF92DF92EF92FF921F93CF93DF93EC014B
:100E5000162FBA0190E080E00E94AB0F6B017C017D
:100E60006EEFCE010E948605682F70E06F5F7F4FA6
:100E700090E080E00E94AB0F20E034E244E759E4C8
:100E80000E940C104B015C016B817C818D819E81E5
:100E90000E94AB0F9B01AC01C501B4010E94C911B6
:100EA0009B01AC01C701B6010E94C9110E943B120F
:100EB0007B0189819A81288131E030938D032093D1
:100EC000AF0310928E031092B00324E0129FB00182
:100ED00011246A5F7F4FDC01ED91FC910190F0815C
:100EE000E02D099570E060E089819A810E945103AC
:100EF00070E060E089819A810E945103B701898185
:100F00009A810E9451036F2D70E089819A810E941D
:100F1000510381E0DF91CF911F91FF90EF90DF901F
:100F2000CF90BF90AF909F908F900C94BE032F9264
:100F30003F924F925F926F927F928F929F92AF9269
:100F4000BF92CF92DF92EF92FF920F931F93CF93B6
:100F5000DF9300D000D000D01F92CDB7DEB7298339
:100F60003A834B835C836D837E838F83C0905F0362
:100F7000D09060030115110591F0C0905D03D090F1
:100F80005E030130110559F0C0905B03D0905C0303
:100F90000230110521F0C0905903D0905A0320ED82
:100FA00037E0D6010E946F124B015C01CE14DF04C2
:100FB00094F5170182E0280E311C2C183D08D12C25
:100FC000C12C94EB492E512C612C712C8FEFC81A37
:100FD000D80A2C143D0409F446C0C501B401A3018C
:100FE00092010E94CA10BA01A9014C505E4F6F4F86
:100FF0007F4F602FCE0101960E941C076FE070E0CA
:1010000080E090E00E94630180ED880E87E0981EEA
:10101000A11CB11CDBCF84EB482E512C612C712C10
:10102000C501B401A30192010E94CA10BA01A9012D
:101030004C505E4F6F4F7F4F602FCE0101960E9444
:101040001C076FE070E080E090E00E94630181E0A7
:10105000C81AD10880ED881A87E0980AA108B1085B
:10106000CE14DF04ECF601151105E9F4F0926003EB
:10107000E0925F0327960FB6F894DEBF0FBECDBF98
:10108000DF91CF911F910F91FF90EF90DF90CF9064
:10109000BF90AF909F908F907F906F905F904F9098
:1010A0003F902F9008950130110529F4F0925E03CE
:1010B000E0925D03DFCF0230110529F4F0925C036A
:1010C000E0925B03D7CFF0925A03E0925903D2CF5C
:1010D0000F931F93462F90E0FC01E255FF4F649160
:1010E000FC01E656FF4FE4914111462FF0E0EE0F70
:1010F000FF1FEA57FF4F8591949100E412E42FE01F
:1011000030E00E94100B611571058105910529F0F1
:101110006F5F7F4F8F4F9F4F9F701F910F9108956B
:10112000FB0101900020E9F73197AF01461B570BF7
:10113000DC01ED91FC910280F381E02D099485EDB5
:101140008093BC008091890390918A03A0918B03C6
:10115000B0918C030796A11DB11D23E0B695A7950C
:10116000979587952A95D1F72091BC0024FD03C05F
:101170001092870308954091890350918A036091EA
:101180008B0370918C03452B462B472B69F30097FB
:10119000A105B10541F02AE22A95F1F700C00197B7
:1011A000A109B109E1CF809188030C949D031F929E
:1011B0000F920FB60F9211242F933F938F939F930B
:1011C000AF93BF938091510390915203A091530329
:1011D000B09154033091500323E0230F2D3758F57D
:1011E0000196A11DB11D209350038093510390934C
:1011F0005203A0935303B0935403809155039091ED
:101200005603A0915703B09158030196A11DB11D3B
:101210008093550390935603A0935703B0935803BC
:10122000BF91AF919F918F913F912F910F900FBEE2
:101230000F901F90189526E8230F0296A11DB11D4F
:10124000D2CF1F920F920FB60F9211242F933F937C
:101250004F935F936F937F938F939F93AF93BF93BE
:10126000EF93FF9381EB93E00E941602FF91EF91C1
:10127000BF91AF919F918F917F916F915F914F91AE
:101280003F912F910F900FBE0F901F9018951F92B6
:101290000F920FB60F9211242F938F939F93EF937A
:1012A000FF93E091C103F091C2038081E091C703F5
:1012B000F091C80382FD1BC090818091CA038F5FAB
:1012C0008F732091CB03821741F0E091CA03F0E0C5
:1012D000EF54FC4F958F8093CA03FF91EF919F913C
:1012E0008F912F910F900FBE0F901F9018958081B6
:1012F000F4CF1F920F920FB60F9211242F933F93AA
:101300004F935F936F937F938F939F93AF93BF930D
:10131000EF93FF93E0916F04F0917004309749F0E0
:10132000A685B7858585968D91FF14C09C918923EC
:10133000A1F4FF91EF91BF91AF919F918F917F9118
:101340006F915F914F913F912F910F900FBE0F9032
:101350001F9018959C91892361F7A389B4899C916A
:101360008589809589238C93868997890197F1F7E0
:10137000608D718DA685B785558538E020E0CB015D
:101380000197F1F7822F90E095958795282F4C9142
:10139000452309F02068315091F7868D81FD209515
:1013A00080914F0490E001968F73992730914E04FD
:1013B000381799F0A0914F04B0E0A250BD4F2C9384
:1013C00080934F04828D938D0197F1F7A389B4899F
:1013D0008C919589892B8C93ACCF868D8160868F7B
:1013E000F1CF1F920F920FB60F9211242F933F93BC
:1013F0004F935F936F937F938F939F93AF93BF931D
:10140000EF93FF938091B900887F803609F44AC03A
:10141000F0F5883209F4A7C018F5803109F49BC0B3
:10142000B8F4882309F4F9C0883009F494C0FF9116
:10143000EF91BF91AF919F918F917F916F915F914C
:101440004F913F912F910F900FBE0F901F901895C5
:10145000883109F488C0803251F78093850314C025
:10146000803409F49DC040F48033B9F38833F9F631
:101470008093850385ECB0C0803509F485C088353C
:1014800009F496C0883499F60E949F08D0CF883915
:1014900009F48CC038F5883729F050F4883611F0FB
:1014A000803729F683E0809387031092DD0257C0CE
:1014B000883809F47BC0803919F0803809F0B7CF3B
:1014C0008091DD02803208F071C0E091DD0281E0A0
:1014D0008E0F8093DD028091BB00F0E0E354FD4F5E
:1014E00080833DC0803B39F0E0F4803A09F479C054
:1014F000883A09F09CCF84E0809387031092BC0265
:101500001092BB02E0914003F09141030995809154
:10151000BB0281110FC081E08093BB0210929B023D
:1015200009C0803C09F4A6CF883C09F4A3CF883BCE
:1015300009F07DCFE091BC0281E08E0F8093BC0268
:10154000F0E0E556FD4F80818093BB009091BC0296
:101550008091BB0229C0809162038093BB0085EC1F
:101560008093BC0064CF909184038091830398178B
:1015700058F5E091840381E08E0F80938403F0E0BE
:10158000ED59FC4F8081E9CFE091840381E08E0F1B
:10159000809384038091BB00F0E0ED59FC4F808381
:1015A00090918403809183039817C8F285E8D8CF7F
:1015B000E091840381E08E0F809384038091BB00CF
:1015C000F0E0ED59FC4F80838091860381115CCF60
:1015D00081E08093610384EA8093BC0010928703CA
:1015E00026CF85EC8093BC00109287038091DD02AA
:1015F000803230F4E091DD02F0E0E354FD4F1082E0
:101600006091DD0270E0E0913E03F0913F038DEBCD
:1016100092E009951092DD020ACF1092850334CF33
:10162000CF92DF92EF92FF920F931F93E82FF92F43
:1016300005C0015011092109310961F190819623FA
:101640009417B9F305C0015011092109310911F1AD
:10165000908196239413F7CFC12CD12CE12CF12C3F
:101660000AC08FEFC81AD80AE80AF80A0C151D0537
:101670002E053F0579F080818623841791F36C2D28
:101680007D2D8E2D9F2D1F910F91FF90EF90DF905C
:10169000CF90089560E070E080E090E01F910F919E
:1016A000FF90EF90DF90CF900895EF92FF920F930D
:1016B0001F93CF93DF93EC017B01198218821B8269
:1016C0001A821D821C82FB0101900020E9F73197EC
:1016D0008F01061B170BB8016F5F7F4F90E080E012
:1016E0000E94A1130097B9F0998388831B830A8312
:1016F0002C813D81232B11F4FC0110821D830C836E
:10170000B70188819981DF91CF911F910F91FF904F
:10171000EF900C94671488819981009711F00E94D2
:101720001813198218821D821C821B821A82DF9173
:10173000CF911F910F91FF90EF9008951092B403F5
:101740001092B30388EE93E0A0E0B0E08093B5037D
:101750009093B603A093B703B093B8032AE031E0A7
:101760003093B2032093B10325EC30E03093BE03F5
:101770002093BD0324EC30E03093C0032093BF03DB
:1017800020EC30E03093C2032093C10321EC30E021
:101790003093C4032093C30322EC30E03093C6039C
:1017A0002093C50326EC30E03093C8032093C70391
:1017B0001092CA031092CB031092CC031092CD0367
:1017C0001092530410925204809354049093550441
:1017D000A0935604B09357042CE131E030935104A8
:1017E0002093500410927404109273048093750433
:1017F00090937604A0937704B09378048EE291E0FE
:10180000909372048093710410928804109287045C
:1018100010928A041092890410928C0410928B0406
:1018200010928E0410928D0460918F046E7F6D7FF4
:1018300060938F046695617081E0682783E00E9461
:10184000DF0061E083E00E940D01E1EBF0E0E49154
:10185000E0938104EDE9F0E0E491F0E0EE0FFF1F8A
:10186000E057FF4F85919491909383048093820475
:1018700060E082E00E940D0180918F0481FD04C030
:1018800061E082E00E94DF0082E080937D04E0EB73
:10189000F0E0E491E0937E04ECE9F0E0E491F0E024
:1018A000EE0FFF1FEA57FF4F8591949190938004AC
:1018B00080937F046CE371E083E694E00E94550B13
:1018C0006CEC71E089E694E00E94550B80E4809313
:1018D0005C0480E594E090935E0480935D04109234
:1018E0008C0410928B0410928A0410928904109236
:1018F0008804109287048FE190E090938E04809387
:101900008D0490917D04963108F047C021E030E0CD
:1019100030938804209387042DE130E030938A04CB
:10192000209389042DE030E030938C0420938B04C5
:101930002091680084E0983048F031E09E3008F44F
:1019400030E081E001C0880F3A95EAF7822B80935E
:1019500068002DE630E0983050F02BE630E09E3005
:1019600030F02CE630E0963110F030E020E030939B
:10197000850420938404292F30E0983008F03DC07E
:1019800081E001C0880F9A95EAF7809386048091E0
:101990008D0490918E040197F1F780918B049091C2
:1019A0008C04892B49F1E0916F04F091700484E07C
:1019B000E137F80709F1309739F0A389B4899C9190
:1019C0008589809589238C9380918F048E7F809365
:1019D0008F0410924F0410924E0481E794E090938C
:1019E000700480936F04E0918404F09185048081F9
:1019F00090918604892B808308959E3040F428506E
:101A0000310981E001C0880F2A95EAF7BECF2E5038
:101A10003109F7CFCF93DF9300D000D000D01F92D1
:101A2000CDB7DEB7789484B5826084BD84B581601B
:101A300084BD85B5826085BD85B5816085BD809199
:101A40006E00816080936E00109281008091810011
:101A50008260809381008091810081608093810009
:101A6000809180008160809380008091B1008460CB
:101A70008093B1008091B00081608093B00080912C
:101A80007A00846080937A0080917A0082608093EB
:101A90007A0080917A00816080937A0080917A0048
:101AA000806880937A001092C100E091C103F091A8
:101AB000C20382E08083E091BD03F091BE031082F7
:101AC000E091BF03F091C0038FEC80831092C903B3
:101AD000E091C503F091C60386E08083E091C303E3
:101AE000F091C403808180618083E091C303F09111
:101AF000C403808188608083E091C303F091C403B4
:101B0000808180688083E091C303F091C403808169
:101B10008F7D808364E670E080E090E00E94630146
:101B200060E08EE00E940D0161E08FE00E940D01F7
:101B300060E080E10E940D0160E088E00E940D01FC
:101B400060E089E00E940D0161E086E00E940D01E5
:101B500061E087E00E940D0160E081E10E940D01DB
:101B600061E082E00E940D0161E083E00E940D01CE
:101B700061E084E00E940D0161E085E00E940D01BA
:101B800060E082E00E94DF0060E084E00E94DF000D
:101B900061E083E00E940D0160E083E00E94DF00CD
:101BA00061E085E00E940D0160E085E00E94DF00B9
:101BB000109243031092420310928E031092B003CE
:101BC0000E947F0386E991E0909341038093400354
:101BD00087E991E090933F0380933E0360E880E0C3
:101BE0000E94AE046AE070E080E090E00E94630131
:101BF00060E070E08AE794E40E94800680E498E761
:101C0000ADE7B1E080935F0490936004A09361041A
:101C1000B093620460E070E080E792E40E94800686
:101C200068EE73E080E090E00E94630187E0ECE5FD
:101C3000F4E0DE01119601900D928A95E1F789E1B9
:101C4000E82EF12C01E010E029813A814B815C8182
:101C50006D817E818F810E9497079AE5E92EF12C94
:101C600010E000E029813A814B815C816D817E81A9
:101C70008F810E94970724E6E22EF12C02E010E00B
:101C800029813A814B815C816D817E818F810E94A7
:101C900097073AE5E32EF12C03E010E029813A8121
:101CA0004B815C816D817E818F810E94970743E02B
:101CB000E42EF12C53E2C52ED12C60E0A62E60E07C
:101CC000B62E60E08FE00E94DF00C7010197F1F7B8
:101CD00061E08FE00E94DF00C6010197F1F760E04C
:101CE0008FE00E94DF0061E08EE00E94680860E003
:101CF00086E00E94DF0060E087E00E94DF0060E095
:101D000081E10E946808CB0149E150E068E170E0A0
:101D10000E946105909349038093480362E370E059
:101D200080E090E00E94630161E086E00E94DF00B5
:101D300061E087E00E94DF0060E081E10E946808C6
:101D4000CB0145E550E063E570E00E9461059093AA
:101D500045038093440362E370E080E090E00E94DA
:101D6000630160E086E00E94DF0061E087E00E949E
:101D7000DF0060E081E10E946808CB0146E350E0AB
:101D800065E370E00E9461059093470380934603EA
:101D900062E370E080E090E00E94630161E086E031
:101DA0000E94DF0060E087E00E94DF0060E081E1E8
:101DB0000E946808CB0147E050E066E070E00E94B6
:101DC000610590934B0380934A0362E370E080E0E7
:101DD00090E00E94630180E10E94B6008C0181E0E6
:101DE00090E00115110511F090E080E090934F0311
:101DF00080934E0388E00E94B60089E00E94B600FE
:101E000021E030E0009711F030E020E030934D0306
:101E100020934C03012B11F0892B61F46CE572E0E7
:101E200081EB93E00E94900863E772E081EB93E01E
:101E30000E9490086CE781E794E00E94BE0268E18E
:101E400081E794E00E94BE0260E081E794E00E9496
:101E5000BE026CE781E794E00E94BE0269E181E77F
:101E600094E00E94BE0260E081E794E00E94BE021E
:101E70006CE781E794E00E94BE0260E081E794E0B5
:101E80000E94BE0266E772E081E794E00E9490083B
:101E900060ED77E080E090E00E9463016CE781E70D
:101EA00094E00E94BE0260E081E794E00E94BE02DE
:101EB0006CE781E794E00E94BE0262E181E794E072
:101EC0000E94BE026AE872E081E794E00E949008F6
:101ED00068EE73E080E090E00E946301A114B10419
:101EE00009F4EFCE0E940202882309F4EACE0E9490
:101EF0000000E7CE8091690490916A04009711F088
:101F00000E9418138091630490916404009711F06B
:101F10000E9418138EE291E09093720480937104F2
:101F200080916F04909170048157944071F4E09116
:101F30008404F091850490818091860480958923A2
:101F400080831092700410926F0408950E94E80F2D
:101F500008F481E00895E89409C097FB3EF4909559
:101F60008095709561957F4F8F4F9F4F9923A9F072
:101F7000F92F96E9BB279395F69587957795679501
:101F8000B795F111F8CFFAF4BB0F11F460FF1BC045
:101F90006F5F7F4F8F4F9F4F16C0882311F096E9D8
:101FA00011C0772321F09EE8872F762F05C0662386
:101FB00071F096E8862F70E060E02AF09A95660F3F
:101FC000771F881FDAF7880F9695879597F90895F8
:101FD000990F0008550FAA0BE0E8FEEF161617063A
:101FE000E807F907C0F012161306E407F50798F0A2
:101FF000621B730B840B950B39F40A2661F0232BBB
:10200000242B252B21F408950A2609F4A140A69536
:102010008FEF811D811D08950E941F100C94901058
:102020000E94821038F00E94891020F0952311F050
:102030000C9479100C947F1011240C94C4100E94FD
:10204000A11070F3959FC1F3950F50E0551F629F4B
:10205000F001729FBB27F00DB11D639FAA27F00D01
:10206000B11DAA1F649F6627B00DA11D661F829F28
:102070002227B00DA11D621F739FB00DA11D621F0D
:10208000839FA00D611D221F749F3327A00D611D2A
:10209000231F849F600D211D822F762F6A2F11240C
:1020A0009F5750409AF0F1F088234AF0EE0FFF1F3F
:1020B000BB1F661F771F881F91505040A9F79E3F96
:1020C000510580F00C9479100C94C4105F3FE4F338
:1020D000983ED4F3869577956795B795F795E795EC
:1020E0009F5FC1F7FE2B880F911D9695879597F9F5
:1020F000089597F99F6780E870E060E008959FEF8A
:1021000080EC089500240A9416161706180609068E
:10211000089500240A94121613061406050608955D
:10212000092E0394000C11F4882352F0BB0F40F4E5
:10213000BF2B11F460FF04C06F5F7F4F8F4F9F4F25
:10214000089557FD9058440F551F59F05F3F71F0A7
:102150004795880F97FB991F61F09F3F79F087950E
:102160000895121613061406551FF2CF4695F1DF97
:1021700008C0161617061806991FF1CF8695710527
:10218000610508940895E894BB2766277727CB015B
:1021900097F90895052E97FB1EF400940E94E11014
:1021A00057FD07D00E942B1107FC03D04EF40C946E
:1021B000E11050954095309521953F4F4F4F5F4F1F
:1021C000089590958095709561957F4F8F4F9F4FA3
:1021D00008950E944D11A59F900DB49F900DA49F4E
:1021E000800D911D112408952F923F924F925F927E
:1021F0006F927F928F929F92AF92BF92CF92DF9217
:10220000EF92FF920F931F93CF93DF93CDB7DEB77B
:10221000CA1BDB0B0FB6F894DEBF0FBECDBF09940F
:102220002A88398848885F846E847D848C849B8466
:10223000AA84B984C884DF80EE80FD800C811B8174
:10224000AA81B981CE0FD11D0FB6F894DEBF0FBEA3
:10225000CDBFED010895A1E21A2EAA1BBB1BFD0103
:102260000DC0AA1FBB1FEE1FFF1FA217B307E40775
:10227000F50720F0A21BB30BE40BF50B661F771FCD
:10228000881F991F1A9469F76095709580959095AD
:102290009B01AC01BD01CF010895A29FB001B39F86
:1022A000C001A39F700D811D1124911DB29F700D5F
:1022B000811D1124911D08955058BB27AA270E9403
:1022C00074110C9490100E94821038F00E948910B2
:1022D00020F039F49F3F19F426F40C947F100EF48B
:1022E000E095E7FB0C947910E92F0E94A11058F3B8
:1022F000BA17620773078407950720F079F4A6F5EB
:102300000C94C3100EF4E0950B2EBA2FA02D0B01E8
:10231000B90190010C01CA01A0011124FF27591B2A
:1023200099F0593F50F4503E68F11A16F040A22F30
:10233000232F342F4427585FF3CF469537952795A1
:10234000A795F0405395C9F77EF41F16BA0B620BA0
:10235000730B840BBAF09150A1F0FF0FBB1F661FE7
:10236000771F881FC2F70EC0BA0F621F731F841F2A
:1023700048F4879577956795B795F7959E3F08F050
:10238000B0CF9395880F08F09927EE0F9795879512
:1023900008950E94DD110C9490100E94891058F04D
:1023A0000E94821040F029F45F3F29F00C947910CC
:1023B00051110C94C4100C947F100E94A11068F36A
:1023C0009923B1F3552391F3951B550BBB27AA27EE
:1023D00062177307840738F09F5F5F4F220F331F28
:1023E000441FAA1FA9F335D00E2E3AF0E0E832D0F0
:1023F00091505040E695001CCAF72BD0FE2F29D0F3
:10240000660F771F881FBB1F261737074807AB07C4
:10241000B0E809F0BB0B802DBF01FF2793585F4F39
:102420003AF09E3F510578F00C9479100C94C4104A
:102430005F3FE4F3983ED4F3869577956795B7951B
:10244000F7959F5FC9F7880F911D9695879597F926
:102450000895E1E0660F771F881FBB1F621773079F
:102460008407BA0720F0621B730B840BBA0BEE1FB4
:1024700088F7E09508950E94A91088F09F5798F07A
:10248000B92F9927B751B0F0E1F0660F771F881F79
:10249000991F1AF0BA95C9F714C0B13091F00E9493
:1024A000C310B1E008950C94C310672F782F8827CC
:1024B000B85F39F0B93FCCF3869577956795B395BA
:1024C000D9F73EF490958095709561957F4F8F4F29
:1024D0009F4F08950E94E80F08F48FEF08950E941F
:1024E0004D11B7FF0895821B930B0895EE0FFF1F48
:1024F0000590F491E02D09940F931F93CF93DF93F0
:102500008230910510F482E090E0E0919204F09125
:10251000930430E020E0B0E0A0E0309799F421157A
:10252000310509F44AC0281B390B24303105D8F590
:102530008A819B816115710589F1FB0193838283F7
:10254000FE0111C040815181028113814817590752
:10255000E0F04817590799F4109761F012960C9320
:10256000129713961C933296CF01DF91CF911F9152
:102570000F9108950093920410939304F4CF2115C2
:10258000310551F04217530738F0A901DB019A01D8
:10259000BD01DF01F801C1CFEF01F9CF90939304A2
:1025A00080939204CDCFFE01E20FF31F81939193AC
:1025B0002250310939832883D7CF2091900430915C
:1025C0009104232B41F420910201309103013093B7
:1025D0009104209390042091000130910101211574
:1025E000310541F42DB73EB74091040150910501EA
:1025F000241B350BE0919004F0919104E217F3074E
:10260000A0F42E1B3F0B2817390778F0AC014E5F62
:102610005F4F2417350748F04E0F5F1F509391040A
:1026200040939004819391939FCFF0E0E0E09CCFA2
:10263000CF93DF930097E9F0FC0132971382128267
:10264000A0919204B0919304ED0130E020E0109746
:10265000A1F420813181820F931F20919004309149
:1026600091042817390709F061C0F0939104E093B1
:102670009004DF91CF910895EA01CE17DF07E8F5C6
:102680004A815B819E0141155105B1F7E901FB8348
:10269000EA8349915991C40FD51FEC17FD0761F4E6
:1026A000808191810296840F951FE9019983888327
:1026B000828193819B838A83F0E0E0E012968D9182
:1026C0009C9113970097B9F52D913C911197CD01ED
:1026D0000296820F931F2091900430919104281745
:1026E000390739F6309751F51092930410929204FD
:1026F000B0939104A0939004BCCFD383C283408154
:102700005181840F951FC817D90761F44E5F5F4F41
:1027100088819981480F591F518340838A819B8109
:10272000938382832115310509F0B0CFF093930490
:10273000E09392049ECFFD01DC01C0CF1382128290
:10274000D7CFB0E0A0E0E7EAF3E10C94F6108C01FB
:10275000009751F4CB010E947C128C01C801CDB7C7
:10276000DEB7E0E10C941211FC01E60FF71F9C01AB
:1027700022503109E217F30708F49DC0D901CD9129
:10278000DC911197C617D70798F0C530D10530F303
:10279000CE0104978617970708F3C61BD70B22971D
:1027A000C193D1936D937C93CF010E941813D6CF20
:1027B0005B01AC1ABD0A4C018C0E9D1EA0919204C7
:1027C000B0919304512C412CF12CE12C109731F550
:1027D00080919004909191048815990509F05CC04E
:1027E0004616570608F058C08091000190910101EB
:1027F000009741F48DB79EB74091040150910501B7
:10280000841B950BE817F90708F055C0F093910465
:10281000E0939004F90171836083A0CF8D919C9126
:10282000119712966C90129713967C901397A81597
:10283000B90559F56C0142E0C40ED11CCA14DB0481
:1028400020F1AC014A195B09DA011296159780F064
:102850006282738251834083D9016D937C93E1142A
:10286000F10471F0D7011396FC93EE93129776CF93
:1028700022968C0F9D1FF90191838083F301EFCF86
:10288000F0939304E093920469CF4816590608F434
:102890002C017D01D3019ACFCB010E947C127C01D7
:1028A000009749F0AE01B8010E945E14C8010E9471
:1028B0001813870153CF10E000E050CFFB01DC017B
:1028C00002C001900D9241505040D8F70895FB018D
:1028D000DC0101900D920020E1F7089510E0C2E6BE
:1028E000D0E004C0FE010E9476122196C336D107C3
:0628F000C9F7F894FFCFC8
:1028F6000000940480000000000038029801C50121
:102906008502F601D401E801000000002F0502054A
:102916005E05BD02FB04E804D90400000000BE0207
:1029260098015E05BD021A033003A502205F5F5FB2
:102936005F5F5F536572766F7320504F5320286434
:102946006567295F5F5F5F5F5F5F5F2020202020F4
:10295600202020202028636D2920202020202020D0
:102966002020205F5F5F5F5F5F495253656E736F24
:1029760072735F5F5F5F5F20202020205F5F5F5F75
:102986005F5F5F5F5F5F5F5F5F5F5F5F5F5F434F7D
:102996004C4F525F5F5F5F5F5F5F5F5F5F5F5F5F71
:1029A6005F5F20202020202020205F5F5F5F5F5F29
:1029B60053504545445F5F5F5F5F5F00202047617E
:1029C60072726120202020426173652020202056EB
:1029D60065727420202020486F72692020202020F4
:1029E60020202044697374616E63652020202020B6
:1029F6002020204C6566742020204D6964646C6537
:102A060020205269676874202020202052454420E7
:102A160020202020475245454E20202020424C555C
:102A260045202020202020202020444554436F6C40
:102A36006F7220202020202020204D3153706565A4
:102A4600642020204D325370656564004120636F19
:102A5600727269676972207472616A6574C3B3724F
:102A66006961000D0A00546F67676C6520726576B0
:102A760065727365206D6F64650052657665727365
:0A2A860065204D6F6465204F6E005F
:00000001FF
